{
  "_format": "hh-sol-artifact-1",
  "contractName": "Consent",
  "sourceName": "contracts/Consent.sol",
  "abi": [
    {
      "anonymous": false,
      "inputs": [
        {
          "indexed": true,
          "internalType": "address",
          "name": "patient",
          "type": "address"
        },
        {
          "indexed": true,
          "internalType": "address",
          "name": "doctor",
          "type": "address"
        },
        {
          "indexed": false,
          "internalType": "string",
          "name": "purpose",
          "type": "string"
        },
        {
          "indexed": false,
          "internalType": "uint256",
          "name": "expiry",
          "type": "uint256"
        }
      ],
      "name": "ConsentGiven",
      "type": "event"
    },
    {
      "anonymous": false,
      "inputs": [
        {
          "indexed": true,
          "internalType": "address",
          "name": "patient",
          "type": "address"
        },
        {
          "indexed": true,
          "internalType": "address",
          "name": "doctor",
          "type": "address"
        }
      ],
      "name": "ConsentRevoked",
      "type": "event"
    },
    {
      "inputs": [
        {
          "internalType": "address",
          "name": "_patient",
          "type": "address"
        },
        {
          "internalType": "address",
          "name": "_doctor",
          "type": "address"
        },
        {
          "internalType": "string",
          "name": "_recordType",
          "type": "string"
        }
      ],
      "name": "checkConsent",
      "outputs": [
        {
          "internalType": "bool",
          "name": "",
          "type": "bool"
        }
      ],
      "stateMutability": "view",
      "type": "function"
    },
    {
      "inputs": [
        {
          "internalType": "address",
          "name": "",
          "type": "address"
        },
        {
          "internalType": "address",
          "name": "",
          "type": "address"
        }
      ],
      "name": "consents",
      "outputs": [
        {
          "internalType": "bool",
          "name": "isActive",
          "type": "bool"
        },
        {
          "internalType": "string",
          "name": "purpose",
          "type": "string"
        },
        {
          "internalType": "uint256",
          "name": "expiryTimestamp",
          "type": "uint256"
        }
      ],
      "stateMutability": "view",
      "type": "function"
    },
    {
      "inputs": [
        {
          "internalType": "address",
          "name": "_doctor",
          "type": "address"
        },
        {
          "internalType": "string",
          "name": "_purpose",
          "type": "string"
        },
        {
          "internalType": "uint256",
          "name": "_durationSeconds",
          "type": "uint256"
        },
        {
          "internalType": "string[]",
          "name": "_allowedRecordTypes",
          "type": "string[]"
        }
      ],
      "name": "giveConsent",
      "outputs": [],
      "stateMutability": "nonpayable",
      "type": "function"
    },
    {
      "inputs": [
        {
          "internalType": "address",
          "name": "_doctor",
          "type": "address"
        }
      ],
      "name": "revokeConsent",
      "outputs": [],
      "stateMutability": "nonpayable",
      "type": "function"
    }
  ],
  "bytecode": "0x608060405234801561000f575f80fd5b506110ba8061001d5f395ff3fe608060405234801561000f575f80fd5b506004361061004a575f3560e01c8063601756c01461004e5780639eff06b41461006a578063ae83af551461009a578063d1a48627146100cc575b5f80fd5b61006860048036038101906100639190610a97565b6100e8565b005b610084600480360381019061007f9190610b33565b610263565b6040516100919190610bb9565b60405180910390f35b6100b460048036038101906100af9190610bd2565b61051b565b6040516100c393929190610c99565b60405180910390f35b6100e660048036038101906100e19190610cd5565b6105dd565b005b6040518060800160405280600115158152602001848152602001834261010e9190610d2d565b8152602001828152505f803373ffffffffffffffffffffffffffffffffffffffff1673ffffffffffffffffffffffffffffffffffffffff1681526020019081526020015f205f8673ffffffffffffffffffffffffffffffffffffffff1673ffffffffffffffffffffffffffffffffffffffff1681526020019081526020015f205f820151815f015f6101000a81548160ff02191690831515021790555060208201518160010190816101c09190610f5a565b506040820151816002015560608201518160030190805190602001906101e79291906106eb565b509050508373ffffffffffffffffffffffffffffffffffffffff163373ffffffffffffffffffffffffffffffffffffffff167fe4e2ff1d9544d130ae3841c18456601a0b2d6b857e1b838bbc1abb15121948738585426102479190610d2d565b604051610255929190611029565b60405180910390a350505050565b5f805f808673ffffffffffffffffffffffffffffffffffffffff1673ffffffffffffffffffffffffffffffffffffffff1681526020019081526020015f205f8573ffffffffffffffffffffffffffffffffffffffff1673ffffffffffffffffffffffffffffffffffffffff1681526020019081526020015f206040518060800160405290815f82015f9054906101000a900460ff1615151515815260200160018201805461031090610d8d565b80601f016020809104026020016040519081016040528092919081815260200182805461033c90610d8d565b80156103875780601f1061035e57610100808354040283529160200191610387565b820191905f5260205f20905b81548152906001019060200180831161036a57829003601f168201915b505050505081526020016002820154815260200160038201805480602002602001604051908101604052809291908181526020015f905b82821015610466578382905f5260205f200180546103db90610d8d565b80601f016020809104026020016040519081016040528092919081815260200182805461040790610d8d565b80156104525780601f1061042957610100808354040283529160200191610452565b820191905f5260205f20905b81548152906001019060200180831161043557829003601f168201915b5050505050815260200190600101906103be565b50505050815250509050805f0151610481575f915050610514565b8060400151421115610496575f915050610514565b5f816060015151111561050e575f805b8260600151518110156104fc578480519060200120836060015182815181106104d2576104d1611057565b5b602002602001015180519060200120036104ef57600191506104fc565b80806001019150506104a6565b508061050c575f92505050610514565b505b60019150505b9392505050565b5f602052815f5260405f20602052805f5260405f205f9150915050805f015f9054906101000a900460ff169080600101805461055690610d8d565b80601f016020809104026020016040519081016040528092919081815260200182805461058290610d8d565b80156105cd5780601f106105a4576101008083540402835291602001916105cd565b820191905f5260205f20905b8154815290600101906020018083116105b057829003601f168201915b5050505050908060020154905083565b5f803373ffffffffffffffffffffffffffffffffffffffff1673ffffffffffffffffffffffffffffffffffffffff1681526020019081526020015f205f8273ffffffffffffffffffffffffffffffffffffffff1673ffffffffffffffffffffffffffffffffffffffff1681526020019081526020015f205f8082015f6101000a81549060ff0219169055600182015f6106769190610742565b600282015f9055600382015f61068c919061077f565b50508073ffffffffffffffffffffffffffffffffffffffff163373ffffffffffffffffffffffffffffffffffffffff167febecee2d3f2ea272f73dd9d9ccc0bacd11280d61240332cbcd8a68173ae5cc2c60405160405180910390a350565b828054828255905f5260205f20908101928215610731579160200282015b828111156107305782518290816107209190610f5a565b5091602001919060010190610709565b5b50905061073e919061079d565b5090565b50805461074e90610d8d565b5f825580601f1061075f575061077c565b601f0160209004905f5260205f209081019061077b91906107c0565b5b50565b5080545f8255905f5260205f209081019061079a919061079d565b50565b5b808211156107bc575f81816107b39190610742565b5060010161079e565b5090565b5b808211156107d7575f815f9055506001016107c1565b5090565b5f604051905090565b5f80fd5b5f80fd5b5f73ffffffffffffffffffffffffffffffffffffffff82169050919050565b5f610815826107ec565b9050919050565b6108258161080b565b811461082f575f80fd5b50565b5f813590506108408161081c565b92915050565b5f80fd5b5f80fd5b5f601f19601f8301169050919050565b7f4e487b71000000000000000000000000000000000000000000000000000000005f52604160045260245ffd5b6108948261084e565b810181811067ffffffffffffffff821117156108b3576108b261085e565b5b80604052505050565b5f6108c56107db565b90506108d1828261088b565b919050565b5f67ffffffffffffffff8211156108f0576108ef61085e565b5b6108f98261084e565b9050602081019050919050565b828183375f83830152505050565b5f610926610921846108d6565b6108bc565b9050828152602081018484840111156109425761094161084a565b5b61094d848285610906565b509392505050565b5f82601f83011261096957610968610846565b5b8135610979848260208601610914565b91505092915050565b5f819050919050565b61099481610982565b811461099e575f80fd5b50565b5f813590506109af8161098b565b92915050565b5f67ffffffffffffffff8211156109cf576109ce61085e565b5b602082029050602081019050919050565b5f80fd5b5f6109f66109f1846109b5565b6108bc565b90508083825260208201905060208402830185811115610a1957610a186109e0565b5b835b81811015610a6057803567ffffffffffffffff811115610a3e57610a3d610846565b5b808601610a4b8982610955565b85526020850194505050602081019050610a1b565b5050509392505050565b5f82601f830112610a7e57610a7d610846565b5b8135610a8e8482602086016109e4565b91505092915050565b5f805f8060808587031215610aaf57610aae6107e4565b5b5f610abc87828801610832565b945050602085013567ffffffffffffffff811115610add57610adc6107e8565b5b610ae987828801610955565b9350506040610afa878288016109a1565b925050606085013567ffffffffffffffff811115610b1b57610b1a6107e8565b5b610b2787828801610a6a565b91505092959194509250565b5f805f60608486031215610b4a57610b496107e4565b5b5f610b5786828701610832565b9350506020610b6886828701610832565b925050604084013567ffffffffffffffff811115610b8957610b886107e8565b5b610b9586828701610955565b9150509250925092565b5f8115159050919050565b610bb381610b9f565b82525050565b5f602082019050610bcc5f830184610baa565b92915050565b5f8060408385031215610be857610be76107e4565b5b5f610bf585828601610832565b9250506020610c0685828601610832565b9150509250929050565b5f81519050919050565b5f82825260208201905092915050565b5f5b83811015610c47578082015181840152602081019050610c2c565b5f8484015250505050565b5f610c5c82610c10565b610c668185610c1a565b9350610c76818560208601610c2a565b610c7f8161084e565b840191505092915050565b610c9381610982565b82525050565b5f606082019050610cac5f830186610baa565b8181036020830152610cbe8185610c52565b9050610ccd6040830184610c8a565b949350505050565b5f60208284031215610cea57610ce96107e4565b5b5f610cf784828501610832565b91505092915050565b7f4e487b71000000000000000000000000000000000000000000000000000000005f52601160045260245ffd5b5f610d3782610982565b9150610d4283610982565b9250828201905080821115610d5a57610d59610d00565b5b92915050565b7f4e487b71000000000000000000000000000000000000000000000000000000005f52602260045260245ffd5b5f6002820490506001821680610da457607f821691505b602082108103610db757610db6610d60565b5b50919050565b5f819050815f5260205f209050919050565b5f6020601f8301049050919050565b5f82821b905092915050565b5f60088302610e197fffffffffffffffffffffffffffffffffffffffffffffffffffffffffffffffff82610dde565b610e238683610dde565b95508019841693508086168417925050509392505050565b5f819050919050565b5f610e5e610e59610e5484610982565b610e3b565b610982565b9050919050565b5f819050919050565b610e7783610e44565b610e8b610e8382610e65565b848454610dea565b825550505050565b5f90565b610e9f610e93565b610eaa818484610e6e565b505050565b5b81811015610ecd57610ec25f82610e97565b600181019050610eb0565b5050565b601f821115610f1257610ee381610dbd565b610eec84610dcf565b81016020851015610efb578190505b610f0f610f0785610dcf565b830182610eaf565b50505b505050565b5f82821c905092915050565b5f610f325f1984600802610f17565b1980831691505092915050565b5f610f4a8383610f23565b9150826002028217905092915050565b610f6382610c10565b67ffffffffffffffff811115610f7c57610f7b61085e565b5b610f868254610d8d565b610f91828285610ed1565b5f60209050601f831160018114610fc2575f8415610fb0578287015190505b610fba8582610f3f565b865550611021565b601f198416610fd086610dbd565b5f5b82811015610ff757848901518255600182019150602085019450602081019050610fd2565b868310156110145784890151611010601f891682610f23565b8355505b6001600288020188555050505b505050505050565b5f6040820190508181035f8301526110418185610c52565b90506110506020830184610c8a565b9392505050565b7f4e487b71000000000000000000000000000000000000000000000000000000005f52603260045260245ffdfea264697066735822122088b27b7dbbabf44e5ba9452c3700ffd2a7542ac2c8c809605934702568e9c8cb64736f6c63430008180033",
  "linkReferences": {},
  "deployedLinkReferences": {}
}