{
  "_format": "hh-sol-artifact-1",
  "contractName": "HealthRecord",
  "sourceName": "contracts/HealthRecord.sol",
  "abi": [
    {
      "anonymous": false,
      "inputs": [
        {
          "indexed": true,
          "internalType": "address",
          "name": "patient",
          "type": "address"
        },
        {
          "indexed": true,
          "internalType": "address",
          "name": "doctor",
          "type": "address"
        }
      ],
      "name": "AccessGranted",
      "type": "event"
    },
    {
      "anonymous": false,
      "inputs": [
        {
          "indexed": true,
          "internalType": "address",
          "name": "patient",
          "type": "address"
        },
        {
          "indexed": true,
          "internalType": "address",
          "name": "doctor",
          "type": "address"
        }
      ],
      "name": "AccessRevoked",
      "type": "event"
    },
    {
      "anonymous": false,
      "inputs": [
        {
          "indexed": true,
          "internalType": "address",
          "name": "patient",
          "type": "address"
        },
        {
          "indexed": false,
          "internalType": "string",
          "name": "ipfsHash",
          "type": "string"
        },
        {
          "indexed": false,
          "internalType": "string",
          "name": "recordType",
          "type": "string"
        }
      ],
      "name": "RecordAdded",
      "type": "event"
    },
    {
      "inputs": [
        {
          "internalType": "string",
          "name": "_ipfsHash",
          "type": "string"
        },
        {
          "internalType": "string",
          "name": "_recordType",
          "type": "string"
        },
        {
          "internalType": "string",
          "name": "_description",
          "type": "string"
        }
      ],
      "name": "addRecord",
      "outputs": [],
      "stateMutability": "nonpayable",
      "type": "function"
    },
    {
      "inputs": [
        {
          "internalType": "address",
          "name": "",
          "type": "address"
        },
        {
          "internalType": "address",
          "name": "",
          "type": "address"
        }
      ],
      "name": "authorizedDoctors",
      "outputs": [
        {
          "internalType": "bool",
          "name": "",
          "type": "bool"
        }
      ],
      "stateMutability": "view",
      "type": "function"
    },
    {
      "inputs": [
        {
          "internalType": "address",
          "name": "_patient",
          "type": "address"
        }
      ],
      "name": "getRecords",
      "outputs": [
        {
          "components": [
            {
              "internalType": "string",
              "name": "ipfsHash",
              "type": "string"
            },
            {
              "internalType": "string",
              "name": "recordType",
              "type": "string"
            },
            {
              "internalType": "uint256",
              "name": "timestamp",
              "type": "uint256"
            },
            {
              "internalType": "address",
              "name": "uploadedBy",
              "type": "address"
            },
            {
              "internalType": "string",
              "name": "description",
              "type": "string"
            }
          ],
          "internalType": "struct HealthRecord.Record[]",
          "name": "",
          "type": "tuple[]"
        }
      ],
      "stateMutability": "view",
      "type": "function"
    },
    {
      "inputs": [
        {
          "internalType": "address",
          "name": "_doctor",
          "type": "address"
        }
      ],
      "name": "grantAccess",
      "outputs": [],
      "stateMutability": "nonpayable",
      "type": "function"
    },
    {
      "inputs": [
        {
          "internalType": "address",
          "name": "",
          "type": "address"
        },
        {
          "internalType": "uint256",
          "name": "",
          "type": "uint256"
        }
      ],
      "name": "patientRecords",
      "outputs": [
        {
          "internalType": "string",
          "name": "ipfsHash",
          "type": "string"
        },
        {
          "internalType": "string",
          "name": "recordType",
          "type": "string"
        },
        {
          "internalType": "uint256",
          "name": "timestamp",
          "type": "uint256"
        },
        {
          "internalType": "address",
          "name": "uploadedBy",
          "type": "address"
        },
        {
          "internalType": "string",
          "name": "description",
          "type": "string"
        }
      ],
      "stateMutability": "view",
      "type": "function"
    },
    {
      "inputs": [
        {
          "internalType": "address",
          "name": "_doctor",
          "type": "address"
        }
      ],
      "name": "revokeAccess",
      "outputs": [],
      "stateMutability": "nonpayable",
      "type": "function"
    }
  ],
  "bytecode": "0x608060405234801561000f575f80fd5b506114268061001d5f395ff3fe608060405234801561000f575f80fd5b5060043610610060575f3560e01c80630ae5e739146100645780631cd5c6e9146100805780633f723c62146100b057806385e68531146100cc57806394f0df61146100e8578063a0076e841461011c575b5f80fd5b61007e60048036038101906100799190610add565b61014c565b005b61009a60048036038101906100959190610b08565b610238565b6040516100a79190610b60565b60405180910390f35b6100ca60048036038101906100c59190610cb5565b610262565b005b6100e660048036038101906100e19190610add565b6103e8565b005b61010260048036038101906100fd9190610d8c565b6104d4565b604051610113959493929190610e62565b60405180910390f35b61013660048036038101906101319190610add565b6106d0565b604051610143919061106a565b60405180910390f35b6001805f3373ffffffffffffffffffffffffffffffffffffffff1673ffffffffffffffffffffffffffffffffffffffff1681526020019081526020015f205f8373ffffffffffffffffffffffffffffffffffffffff1673ffffffffffffffffffffffffffffffffffffffff1681526020019081526020015f205f6101000a81548160ff0219169083151502179055508073ffffffffffffffffffffffffffffffffffffffff163373ffffffffffffffffffffffffffffffffffffffff167f9f520b3bfc56d06f7065d10b4683b3f57ac8895d5026cd176dee95ce1454cb8d60405160405180910390a350565b6001602052815f5260405f20602052805f5260405f205f915091509054906101000a900460ff1681565b5f803373ffffffffffffffffffffffffffffffffffffffff1673ffffffffffffffffffffffffffffffffffffffff1681526020019081526020015f206040518060a001604052808581526020018481526020014281526020013373ffffffffffffffffffffffffffffffffffffffff16815260200183815250908060018154018082558091505060019003905f5260205f2090600502015f909190919091505f820151815f0190816103149190611284565b50602082015181600101908161032a9190611284565b50604082015181600201556060820151816003015f6101000a81548173ffffffffffffffffffffffffffffffffffffffff021916908373ffffffffffffffffffffffffffffffffffffffff16021790555060808201518160040190816103909190611284565b5050503373ffffffffffffffffffffffffffffffffffffffff167fdb700a91de0991890ad5b3c2f696ac597656f7499d0643239838f5033a15fb4284846040516103db929190611353565b60405180910390a2505050565b5f60015f3373ffffffffffffffffffffffffffffffffffffffff1673ffffffffffffffffffffffffffffffffffffffff1681526020019081526020015f205f8373ffffffffffffffffffffffffffffffffffffffff1673ffffffffffffffffffffffffffffffffffffffff1681526020019081526020015f205f6101000a81548160ff0219169083151502179055508073ffffffffffffffffffffffffffffffffffffffff163373ffffffffffffffffffffffffffffffffffffffff167f825c8be24eb0df19500f63e86c29e7d0d951e73056b889b891d85e40938d9b6e60405160405180910390a350565b5f602052815f5260405f2081815481106104ec575f80fd5b905f5260205f2090600502015f9150915050805f01805461050c906110b7565b80601f0160208091040260200160405190810160405280929190818152602001828054610538906110b7565b80156105835780601f1061055a57610100808354040283529160200191610583565b820191905f5260205f20905b81548152906001019060200180831161056657829003601f168201915b505050505090806001018054610598906110b7565b80601f01602080910402602001604051908101604052809291908181526020018280546105c4906110b7565b801561060f5780601f106105e65761010080835404028352916020019161060f565b820191905f5260205f20905b8154815290600101906020018083116105f257829003601f168201915b505050505090806002015490806003015f9054906101000a900473ffffffffffffffffffffffffffffffffffffffff169080600401805461064f906110b7565b80601f016020809104026020016040519081016040528092919081815260200182805461067b906110b7565b80156106c65780601f1061069d576101008083540402835291602001916106c6565b820191905f5260205f20905b8154815290600101906020018083116106a957829003601f168201915b5050505050905085565b6060818073ffffffffffffffffffffffffffffffffffffffff163373ffffffffffffffffffffffffffffffffffffffff16148061078e575060015f8273ffffffffffffffffffffffffffffffffffffffff1673ffffffffffffffffffffffffffffffffffffffff1681526020019081526020015f205f3373ffffffffffffffffffffffffffffffffffffffff1673ffffffffffffffffffffffffffffffffffffffff1681526020019081526020015f205f9054906101000a900460ff165b6107cd576040517f08c379a00000000000000000000000000000000000000000000000000000000081526004016107c4906113d2565b60405180910390fd5b5f808473ffffffffffffffffffffffffffffffffffffffff1673ffffffffffffffffffffffffffffffffffffffff1681526020019081526020015f20805480602002602001604051908101604052809291908181526020015f905b82821015610a66578382905f5260205f2090600502016040518060a00160405290815f82018054610858906110b7565b80601f0160208091040260200160405190810160405280929190818152602001828054610884906110b7565b80156108cf5780601f106108a6576101008083540402835291602001916108cf565b820191905f5260205f20905b8154815290600101906020018083116108b257829003601f168201915b505050505081526020016001820180546108e8906110b7565b80601f0160208091040260200160405190810160405280929190818152602001828054610914906110b7565b801561095f5780601f106109365761010080835404028352916020019161095f565b820191905f5260205f20905b81548152906001019060200180831161094257829003601f168201915b5050505050815260200160028201548152602001600382015f9054906101000a900473ffffffffffffffffffffffffffffffffffffffff1673ffffffffffffffffffffffffffffffffffffffff1673ffffffffffffffffffffffffffffffffffffffff1681526020016004820180546109d7906110b7565b80601f0160208091040260200160405190810160405280929190818152602001828054610a03906110b7565b8015610a4e5780601f10610a2557610100808354040283529160200191610a4e565b820191905f5260205f20905b815481529060010190602001808311610a3157829003601f168201915b50505050508152505081526020019060010190610828565b50505050915050919050565b5f604051905090565b5f80fd5b5f80fd5b5f73ffffffffffffffffffffffffffffffffffffffff82169050919050565b5f610aac82610a83565b9050919050565b610abc81610aa2565b8114610ac6575f80fd5b50565b5f81359050610ad781610ab3565b92915050565b5f60208284031215610af257610af1610a7b565b5b5f610aff84828501610ac9565b91505092915050565b5f8060408385031215610b1e57610b1d610a7b565b5b5f610b2b85828601610ac9565b9250506020610b3c85828601610ac9565b9150509250929050565b5f8115159050919050565b610b5a81610b46565b82525050565b5f602082019050610b735f830184610b51565b92915050565b5f80fd5b5f80fd5b5f601f19601f8301169050919050565b7f4e487b71000000000000000000000000000000000000000000000000000000005f52604160045260245ffd5b610bc782610b81565b810181811067ffffffffffffffff82111715610be657610be5610b91565b5b80604052505050565b5f610bf8610a72565b9050610c048282610bbe565b919050565b5f67ffffffffffffffff821115610c2357610c22610b91565b5b610c2c82610b81565b9050602081019050919050565b828183375f83830152505050565b5f610c59610c5484610c09565b610bef565b905082815260208101848484011115610c7557610c74610b7d565b5b610c80848285610c39565b509392505050565b5f82601f830112610c9c57610c9b610b79565b5b8135610cac848260208601610c47565b91505092915050565b5f805f60608486031215610ccc57610ccb610a7b565b5b5f84013567ffffffffffffffff811115610ce957610ce8610a7f565b5b610cf586828701610c88565b935050602084013567ffffffffffffffff811115610d1657610d15610a7f565b5b610d2286828701610c88565b925050604084013567ffffffffffffffff811115610d4357610d42610a7f565b5b610d4f86828701610c88565b9150509250925092565b5f819050919050565b610d6b81610d59565b8114610d75575f80fd5b50565b5f81359050610d8681610d62565b92915050565b5f8060408385031215610da257610da1610a7b565b5b5f610daf85828601610ac9565b9250506020610dc085828601610d78565b9150509250929050565b5f81519050919050565b5f82825260208201905092915050565b5f5b83811015610e01578082015181840152602081019050610de6565b5f8484015250505050565b5f610e1682610dca565b610e208185610dd4565b9350610e30818560208601610de4565b610e3981610b81565b840191505092915050565b610e4d81610d59565b82525050565b610e5c81610aa2565b82525050565b5f60a0820190508181035f830152610e7a8188610e0c565b90508181036020830152610e8e8187610e0c565b9050610e9d6040830186610e44565b610eaa6060830185610e53565b8181036080830152610ebc8184610e0c565b90509695505050505050565b5f81519050919050565b5f82825260208201905092915050565b5f819050602082019050919050565b5f82825260208201905092915050565b5f610f0b82610dca565b610f158185610ef1565b9350610f25818560208601610de4565b610f2e81610b81565b840191505092915050565b610f4281610d59565b82525050565b610f5181610aa2565b82525050565b5f60a083015f8301518482035f860152610f718282610f01565b91505060208301518482036020860152610f8b8282610f01565b9150506040830151610fa06040860182610f39565b506060830151610fb36060860182610f48565b5060808301518482036080860152610fcb8282610f01565b9150508091505092915050565b5f610fe38383610f57565b905092915050565b5f602082019050919050565b5f61100182610ec8565b61100b8185610ed2565b93508360208202850161101d85610ee2565b805f5b8581101561105857848403895281516110398582610fd8565b945061104483610feb565b925060208a01995050600181019050611020565b50829750879550505050505092915050565b5f6020820190508181035f8301526110828184610ff7565b905092915050565b7f4e487b71000000000000000000000000000000000000000000000000000000005f52602260045260245ffd5b5f60028204905060018216806110ce57607f821691505b6020821081036110e1576110e061108a565b5b50919050565b5f819050815f5260205f209050919050565b5f6020601f8301049050919050565b5f82821b905092915050565b5f600883026111437fffffffffffffffffffffffffffffffffffffffffffffffffffffffffffffffff82611108565b61114d8683611108565b95508019841693508086168417925050509392505050565b5f819050919050565b5f61118861118361117e84610d59565b611165565b610d59565b9050919050565b5f819050919050565b6111a18361116e565b6111b56111ad8261118f565b848454611114565b825550505050565b5f90565b6111c96111bd565b6111d4818484611198565b505050565b5b818110156111f7576111ec5f826111c1565b6001810190506111da565b5050565b601f82111561123c5761120d816110e7565b611216846110f9565b81016020851015611225578190505b611239611231856110f9565b8301826111d9565b50505b505050565b5f82821c905092915050565b5f61125c5f1984600802611241565b1980831691505092915050565b5f611274838361124d565b9150826002028217905092915050565b61128d82610dca565b67ffffffffffffffff8111156112a6576112a5610b91565b5b6112b082546110b7565b6112bb8282856111fb565b5f60209050601f8311600181146112ec575f84156112da578287015190505b6112e48582611269565b86555061134b565b601f1984166112fa866110e7565b5f5b82811015611321578489015182556001820191506020850194506020810190506112fc565b8683101561133e578489015161133a601f89168261124d565b8355505b6001600288020188555050505b505050505050565b5f6040820190508181035f83015261136b8185610e0c565b9050818103602083015261137f8184610e0c565b90509392505050565b7f4e6f7420617574686f72697a65640000000000000000000000000000000000005f82015250565b5f6113bc600e83610dd4565b91506113c782611388565b602082019050919050565b5f6020820190508181035f8301526113e9816113b0565b905091905056fea2646970667358221220ca1effc401d88c46383ee2a82690d378cd020717f1996ebb14bf6de1bdd3d44164736f6c63430008180033",
  "linkReferences": {},
  "deployedLinkReferences": {}
}